{
  "_format": "hh-sol-artifact-1",
  "contractName": "WavePortal",
  "sourceName": "contracts/WavePortal.sol",
  "abi": [
    {
      "inputs": [],
      "stateMutability": "payable",
      "type": "constructor"
    },
    {
      "anonymous": false,
      "inputs": [
        {
          "indexed": true,
          "internalType": "address",
          "name": "from",
          "type": "address"
        },
        {
          "indexed": false,
          "internalType": "uint256",
          "name": "timestamp",
          "type": "uint256"
        },
        {
          "indexed": false,
          "internalType": "string",
          "name": "message",
          "type": "string"
        }
      ],
      "name": "NewWave",
      "type": "event"
    },
    {
      "anonymous": false,
      "inputs": [
        {
          "indexed": true,
          "internalType": "address",
          "name": "winner",
          "type": "address"
        }
      ],
      "name": "WonPrize",
      "type": "event"
    },
    {
      "inputs": [
        {
          "internalType": "address",
          "name": "",
          "type": "address"
        }
      ],
      "name": "addressWaves",
      "outputs": [
        {
          "internalType": "uint256",
          "name": "",
          "type": "uint256"
        }
      ],
      "stateMutability": "view",
      "type": "function"
    },
    {
      "inputs": [],
      "name": "getAllWaves",
      "outputs": [
        {
          "components": [
            {
              "internalType": "address",
              "name": "waver",
              "type": "address"
            },
            {
              "internalType": "string",
              "name": "message",
              "type": "string"
            },
            {
              "internalType": "uint256",
              "name": "timestamp",
              "type": "uint256"
            }
          ],
          "internalType": "struct WavePortal.Wave[]",
          "name": "",
          "type": "tuple[]"
        }
      ],
      "stateMutability": "view",
      "type": "function"
    },
    {
      "inputs": [],
      "name": "getTotalWaves",
      "outputs": [
        {
          "internalType": "uint256",
          "name": "",
          "type": "uint256"
        }
      ],
      "stateMutability": "view",
      "type": "function"
    },
    {
      "inputs": [
        {
          "internalType": "address",
          "name": "_address",
          "type": "address"
        }
      ],
      "name": "getTotalWavesFor",
      "outputs": [
        {
          "internalType": "uint256",
          "name": "",
          "type": "uint256"
        }
      ],
      "stateMutability": "view",
      "type": "function"
    },
    {
      "inputs": [
        {
          "internalType": "address",
          "name": "",
          "type": "address"
        }
      ],
      "name": "lastWavedAt",
      "outputs": [
        {
          "internalType": "uint256",
          "name": "",
          "type": "uint256"
        }
      ],
      "stateMutability": "view",
      "type": "function"
    },
    {
      "inputs": [],
      "name": "totalWaves",
      "outputs": [
        {
          "internalType": "uint256",
          "name": "",
          "type": "uint256"
        }
      ],
      "stateMutability": "view",
      "type": "function"
    },
    {
      "inputs": [
        {
          "internalType": "string",
          "name": "_message",
          "type": "string"
        }
      ],
      "name": "wave",
      "outputs": [],
      "stateMutability": "nonpayable",
      "type": "function"
    },
    {
      "inputs": [
        {
          "internalType": "uint256",
          "name": "",
          "type": "uint256"
        }
      ],
      "name": "waves",
      "outputs": [
        {
          "internalType": "address",
          "name": "waver",
          "type": "address"
        },
        {
          "internalType": "string",
          "name": "message",
          "type": "string"
        },
        {
          "internalType": "uint256",
          "name": "timestamp",
          "type": "uint256"
        }
      ],
      "stateMutability": "view",
      "type": "function"
    }
  ],
  "bytecode": "0x60806040526200004f6040518060400160405280601a81526020017f596f2c2053656e64206d6520612057617665206465706c6f79210000000000008152506200007760201b620009cd1760201c565b606444426200005f91906200017c565b6200006b9190620001e6565b600181905550620002dc565b62000117816040516024016200008e9190620002b8565b6040516020818303038152906040527f41304fac000000000000000000000000000000000000000000000000000000007bffffffffffffffffffffffffffffffffffffffffffffffffffffffff19166020820180517bffffffffffffffffffffffffffffffffffffffffffffffffffffffff83818316178352505050506200011a60201b60201c565b50565b60008151905060006a636f6e736f6c652e6c6f679050602083016000808483855afa5050505050565b6000819050919050565b7f4e487b7100000000000000000000000000000000000000000000000000000000600052601160045260246000fd5b6000620001898262000143565b9150620001968362000143565b9250828201905080821115620001b157620001b06200014d565b5b92915050565b7f4e487b7100000000000000000000000000000000000000000000000000000000600052601260045260246000fd5b6000620001f38262000143565b9150620002008362000143565b925082620002135762000212620001b7565b5b828206905092915050565b600081519050919050565b600082825260208201905092915050565b60005b838110156200025a5780820151818401526020810190506200023d565b60008484015250505050565b6000601f19601f8301169050919050565b600062000284826200021e565b62000290818562000229565b9350620002a28185602086016200023a565b620002ad8162000266565b840191505092915050565b60006020820190508181036000830152620002d4818462000277565b905092915050565b61197880620002ec6000396000f3fe608060405234801561001057600080fd5b50600436106100885760003560e01c80639a2cdc081161005b5780639a2cdc0814610127578063a42a466314610145578063bd43a90814610175578063c781267a1461019357610088565b80632280cbff1461008d57806322d8b87e146100bd578063291bcab3146100ed578063449d46c01461010b575b600080fd5b6100a760048036038101906100a29190610d77565b6101c5565b6040516100b49190610dbd565b60405180910390f35b6100d760048036038101906100d29190610d77565b6101dd565b6040516100e49190610dbd565b60405180910390f35b6100f56102a5565b6040516101029190610dbd565b60405180910390f35b61012560048036038101906101209190610f1e565b6102ab565b005b61012f610737565b60405161013c9190610dbd565b60405180910390f35b61015f600480360381019061015a9190610d77565b610782565b60405161016c9190610dbd565b60405180910390f35b61017d61079a565b60405161018a9190611116565b60405180910390f35b6101ad60048036038101906101a89190611164565b6108eb565b6040516101bc939291906111ea565b60405180910390f35b60036020528060005260406000206000915090505481565b600061025e6040518060400160405280601681526020017f2573206861732077617665642025642074696d6573210000000000000000000081525083600360008673ffffffffffffffffffffffffffffffffffffffff1673ffffffffffffffffffffffffffffffffffffffff16815260200190815260200160002054610a66565b600360008373ffffffffffffffffffffffffffffffffffffffff1673ffffffffffffffffffffffffffffffffffffffff168152602001908152602001600020549050919050565b60005481565b4261012c600460003373ffffffffffffffffffffffffffffffffffffffff1673ffffffffffffffffffffffffffffffffffffffff168152602001908152602001600020546102f99190611257565b10610339576040517f08c379a0000000000000000000000000000000000000000000000000000000008152600401610330906112fd565b60405180910390fd5b42600460003373ffffffffffffffffffffffffffffffffffffffff1673ffffffffffffffffffffffffffffffffffffffff168152602001908152602001600020819055506103bd6040518060400160405280601681526020017f257320776176656420772f206d657373616765202573000000000000000000008152503383610b05565b6000808154809291906103cf9061131d565b9190505550600360003373ffffffffffffffffffffffffffffffffffffffff1673ffffffffffffffffffffffffffffffffffffffff16815260200190815260200160002060008154809291906104249061131d565b9190505550600260405180606001604052803373ffffffffffffffffffffffffffffffffffffffff16815260200183815260200142815250908060018154018082558091505060019003906000526020600020906003020160009091909190915060008201518160000160006101000a81548173ffffffffffffffffffffffffffffffffffffffff021916908373ffffffffffffffffffffffffffffffffffffffff16021790555060208201518160010190816104e19190611571565b50604082015181600201555050606460015442446104ff9190611257565b6105099190611257565b6105139190611672565b60018190555061055a6040518060400160405280601681526020017f52616e646f6d20232067656e6572617465643a20256400000000000000000000815250600154610ba4565b603260015410156106e4576105a46040518060400160405280600781526020017f257320776f6e210000000000000000000000000000000000000000000000000081525033610c40565b6000655af3107a40009050478111156105f2576040517f08c379a00000000000000000000000000000000000000000000000000000000081526004016105e990611715565b60405180910390fd5b60003373ffffffffffffffffffffffffffffffffffffffff168260405161061890611766565b60006040518083038185875af1925050503d8060008114610655576040519150601f19603f3d011682016040523d82523d6000602084013e61065a565b606091505b505090508061069e576040517f08c379a0000000000000000000000000000000000000000000000000000000008152600401610695906117ed565b60405180910390fd5b3373ffffffffffffffffffffffffffffffffffffffff167f5941c807037e6723454ab14304756e6e99088c0a5461a6d5388361a31f47063560405160405180910390a250505b3373ffffffffffffffffffffffffffffffffffffffff167f5f7e16dc676677766a70e9c5628aa6c54ddb8b6e5188e2ae1e1f17f1ffbea716428360405161072c92919061180d565b60405180910390a250565b600061077a6040518060400160405280601781526020017f5765206861766520256420746f74616c20776176657321000000000000000000815250600054610ba4565b600054905090565b60046020528060005260406000206000915090505481565b60606002805480602002602001604051908101604052809291908181526020016000905b828210156108e257838290600052602060002090600302016040518060600160405290816000820160009054906101000a900473ffffffffffffffffffffffffffffffffffffffff1673ffffffffffffffffffffffffffffffffffffffff1673ffffffffffffffffffffffffffffffffffffffff16815260200160018201805461084790611394565b80601f016020809104026020016040519081016040528092919081815260200182805461087390611394565b80156108c05780601f10610895576101008083540402835291602001916108c0565b820191906000526020600020905b8154815290600101906020018083116108a357829003601f168201915b50505050508152602001600282015481525050815260200190600101906107be565b50505050905090565b600281815481106108fb57600080fd5b90600052602060002090600302016000915090508060000160009054906101000a900473ffffffffffffffffffffffffffffffffffffffff169080600101805461094490611394565b80601f016020809104026020016040519081016040528092919081815260200182805461097090611394565b80156109bd5780601f10610992576101008083540402835291602001916109bd565b820191906000526020600020905b8154815290600101906020018083116109a057829003601f168201915b5050505050908060020154905083565b610a63816040516024016109e1919061183d565b6040516020818303038152906040527f41304fac000000000000000000000000000000000000000000000000000000007bffffffffffffffffffffffffffffffffffffffffffffffffffffffff19166020820180517bffffffffffffffffffffffffffffffffffffffffffffffffffffffff8381831617835250505050610cdc565b50565b610b00838383604051602401610a7e9392919061185f565b6040516020818303038152906040527f0d26b925000000000000000000000000000000000000000000000000000000007bffffffffffffffffffffffffffffffffffffffffffffffffffffffff19166020820180517bffffffffffffffffffffffffffffffffffffffffffffffffffffffff8381831617835250505050610cdc565b505050565b610b9f838383604051602401610b1d9392919061189d565b6040516020818303038152906040527fe0e9ad4f000000000000000000000000000000000000000000000000000000007bffffffffffffffffffffffffffffffffffffffffffffffffffffffff19166020820180517bffffffffffffffffffffffffffffffffffffffffffffffffffffffff8381831617835250505050610cdc565b505050565b610c3c8282604051602401610bba9291906118e2565b6040516020818303038152906040527fb60e72cc000000000000000000000000000000000000000000000000000000007bffffffffffffffffffffffffffffffffffffffffffffffffffffffff19166020820180517bffffffffffffffffffffffffffffffffffffffffffffffffffffffff8381831617835250505050610cdc565b5050565b610cd88282604051602401610c56929190611912565b6040516020818303038152906040527f319af333000000000000000000000000000000000000000000000000000000007bffffffffffffffffffffffffffffffffffffffffffffffffffffffff19166020820180517bffffffffffffffffffffffffffffffffffffffffffffffffffffffff8381831617835250505050610cdc565b5050565b60008151905060006a636f6e736f6c652e6c6f679050602083016000808483855afa5050505050565b6000604051905090565b600080fd5b600080fd5b600073ffffffffffffffffffffffffffffffffffffffff82169050919050565b6000610d4482610d19565b9050919050565b610d5481610d39565b8114610d5f57600080fd5b50565b600081359050610d7181610d4b565b92915050565b600060208284031215610d8d57610d8c610d0f565b5b6000610d9b84828501610d62565b91505092915050565b6000819050919050565b610db781610da4565b82525050565b6000602082019050610dd26000830184610dae565b92915050565b600080fd5b600080fd5b6000601f19601f8301169050919050565b7f4e487b7100000000000000000000000000000000000000000000000000000000600052604160045260246000fd5b610e2b82610de2565b810181811067ffffffffffffffff82111715610e4a57610e49610df3565b5b80604052505050565b6000610e5d610d05565b9050610e698282610e22565b919050565b600067ffffffffffffffff821115610e8957610e88610df3565b5b610e9282610de2565b9050602081019050919050565b82818337600083830152505050565b6000610ec1610ebc84610e6e565b610e53565b905082815260208101848484011115610edd57610edc610ddd565b5b610ee8848285610e9f565b509392505050565b600082601f830112610f0557610f04610dd8565b5b8135610f15848260208601610eae565b91505092915050565b600060208284031215610f3457610f33610d0f565b5b600082013567ffffffffffffffff811115610f5257610f51610d14565b5b610f5e84828501610ef0565b91505092915050565b600081519050919050565b600082825260208201905092915050565b6000819050602082019050919050565b610f9c81610d39565b82525050565b600081519050919050565b600082825260208201905092915050565b60005b83811015610fdc578082015181840152602081019050610fc1565b60008484015250505050565b6000610ff382610fa2565b610ffd8185610fad565b935061100d818560208601610fbe565b61101681610de2565b840191505092915050565b61102a81610da4565b82525050565b60006060830160008301516110486000860182610f93565b50602083015184820360208601526110608282610fe8565b91505060408301516110756040860182611021565b508091505092915050565b600061108c8383611030565b905092915050565b6000602082019050919050565b60006110ac82610f67565b6110b68185610f72565b9350836020820285016110c885610f83565b8060005b8581101561110457848403895281516110e58582611080565b94506110f083611094565b925060208a019950506001810190506110cc565b50829750879550505050505092915050565b6000602082019050818103600083015261113081846110a1565b905092915050565b61114181610da4565b811461114c57600080fd5b50565b60008135905061115e81611138565b92915050565b60006020828403121561117a57611179610d0f565b5b60006111888482850161114f565b91505092915050565b61119a81610d39565b82525050565b600082825260208201905092915050565b60006111bc82610fa2565b6111c681856111a0565b93506111d6818560208601610fbe565b6111df81610de2565b840191505092915050565b60006060820190506111ff6000830186611191565b818103602083015261121181856111b1565b90506112206040830184610dae565b949350505050565b7f4e487b7100000000000000000000000000000000000000000000000000000000600052601160045260246000fd5b600061126282610da4565b915061126d83610da4565b925082820190508082111561128557611284611228565b5b92915050565b7f4d75737420776169742035206d696e75746573206265666f726520776176696e60008201527f6720616761696e2e000000000000000000000000000000000000000000000000602082015250565b60006112e76028836111a0565b91506112f28261128b565b604082019050919050565b60006020820190508181036000830152611316816112da565b9050919050565b600061132882610da4565b91507fffffffffffffffffffffffffffffffffffffffffffffffffffffffffffffffff820361135a57611359611228565b5b600182019050919050565b7f4e487b7100000000000000000000000000000000000000000000000000000000600052602260045260246000fd5b600060028204905060018216806113ac57607f821691505b6020821081036113bf576113be611365565b5b50919050565b60008190508160005260206000209050919050565b60006020601f8301049050919050565b600082821b905092915050565b6000600883026114277fffffffffffffffffffffffffffffffffffffffffffffffffffffffffffffffff826113ea565b61143186836113ea565b95508019841693508086168417925050509392505050565b6000819050919050565b600061146e61146961146484610da4565b611449565b610da4565b9050919050565b6000819050919050565b61148883611453565b61149c61149482611475565b8484546113f7565b825550505050565b600090565b6114b16114a4565b6114bc81848461147f565b505050565b5b818110156114e0576114d56000826114a9565b6001810190506114c2565b5050565b601f821115611525576114f6816113c5565b6114ff846113da565b8101602085101561150e578190505b61152261151a856113da565b8301826114c1565b50505b505050565b600082821c905092915050565b60006115486000198460080261152a565b1980831691505092915050565b60006115618383611537565b9150826002028217905092915050565b61157a82610fa2565b67ffffffffffffffff81111561159357611592610df3565b5b61159d8254611394565b6115a88282856114e4565b600060209050601f8311600181146115db57600084156115c9578287015190505b6115d38582611555565b86555061163b565b601f1984166115e9866113c5565b60005b82811015611611578489015182556001820191506020850194506020810190506115ec565b8683101561162e578489015161162a601f891682611537565b8355505b6001600288020188555050505b505050505050565b7f4e487b7100000000000000000000000000000000000000000000000000000000600052601260045260246000fd5b600061167d82610da4565b915061168883610da4565b92508261169857611697611643565b5b828206905092915050565b7f547279696e6720746f207769746864726177206d6f7265206d6f6e657920746860008201527f616e2074686520636f6e7472616374206861732e000000000000000000000000602082015250565b60006116ff6034836111a0565b915061170a826116a3565b604082019050919050565b6000602082019050818103600083015261172e816116f2565b9050919050565b600081905092915050565b50565b6000611750600083611735565b915061175b82611740565b600082019050919050565b600061177182611743565b9150819050919050565b7f4661696c656420746f207769746864726177206d6f6e65792066726f6d20636f60008201527f6e74726163742e00000000000000000000000000000000000000000000000000602082015250565b60006117d76027836111a0565b91506117e28261177b565b604082019050919050565b60006020820190508181036000830152611806816117ca565b9050919050565b60006040820190506118226000830185610dae565b818103602083015261183481846111b1565b90509392505050565b6000602082019050818103600083015261185781846111b1565b905092915050565b6000606082019050818103600083015261187981866111b1565b90506118886020830185611191565b6118956040830184610dae565b949350505050565b600060608201905081810360008301526118b781866111b1565b90506118c66020830185611191565b81810360408301526118d881846111b1565b9050949350505050565b600060408201905081810360008301526118fc81856111b1565b905061190b6020830184610dae565b9392505050565b6000604082019050818103600083015261192c81856111b1565b905061193b6020830184611191565b939250505056fea264697066735822122044ab52bca4921175529efebeceb82c35b053ea36b522709230531fda538954aa64736f6c63430008110033",
  "linkReferences": {},
  "deployedLinkReferences": {}
}